{
  "_format": "hh-sol-artifact-1",
  "contractName": "Marketplace",
  "sourceName": "src/backend/contracts/Marketplace.sol",
  "abi": [
    {
      "inputs": [
        {
          "internalType": "uint256",
          "name": "_feePercent",
          "type": "uint256"
        }
      ],
      "stateMutability": "nonpayable",
      "type": "constructor"
    },
    {
      "anonymous": false,
      "inputs": [
        {
          "indexed": false,
          "internalType": "uint256",
          "name": "itemId",
          "type": "uint256"
        },
        {
          "indexed": true,
          "internalType": "address",
          "name": "nft",
          "type": "address"
        },
        {
          "indexed": false,
          "internalType": "uint256",
          "name": "tokenId",
          "type": "uint256"
        },
        {
          "indexed": false,
          "internalType": "uint256",
          "name": "price",
          "type": "uint256"
        },
        {
          "indexed": true,
          "internalType": "address",
          "name": "seller",
          "type": "address"
        },
        {
          "indexed": true,
          "internalType": "address",
          "name": "buyer",
          "type": "address"
        }
      ],
      "name": "Bought",
      "type": "event"
    },
    {
      "anonymous": false,
      "inputs": [
        {
          "indexed": false,
          "internalType": "uint256",
          "name": "itemId",
          "type": "uint256"
        },
        {
          "indexed": true,
          "internalType": "address",
          "name": "nft",
          "type": "address"
        },
        {
          "indexed": false,
          "internalType": "uint256",
          "name": "tokenId",
          "type": "uint256"
        },
        {
          "indexed": false,
          "internalType": "uint256",
          "name": "price",
          "type": "uint256"
        },
        {
          "indexed": true,
          "internalType": "address",
          "name": "seller",
          "type": "address"
        }
      ],
      "name": "Offered",
      "type": "event"
    },
    {
      "inputs": [],
      "name": "feeAccount",
      "outputs": [
        {
          "internalType": "address payable",
          "name": "",
          "type": "address"
        }
      ],
      "stateMutability": "view",
      "type": "function"
    },
    {
      "inputs": [],
      "name": "feePercent",
      "outputs": [
        {
          "internalType": "uint256",
          "name": "",
          "type": "uint256"
        }
      ],
      "stateMutability": "view",
      "type": "function"
    },
    {
      "inputs": [
        {
          "internalType": "uint256",
          "name": "_itemId",
          "type": "uint256"
        }
      ],
      "name": "getTotalPrice",
      "outputs": [
        {
          "internalType": "uint256",
          "name": "",
          "type": "uint256"
        }
      ],
      "stateMutability": "view",
      "type": "function"
    },
    {
      "inputs": [],
      "name": "itemCount",
      "outputs": [
        {
          "internalType": "uint256",
          "name": "",
          "type": "uint256"
        }
      ],
      "stateMutability": "view",
      "type": "function"
    },
    {
      "inputs": [
        {
          "internalType": "uint256",
          "name": "",
          "type": "uint256"
        }
      ],
      "name": "items",
      "outputs": [
        {
          "internalType": "uint256",
          "name": "itemId",
          "type": "uint256"
        },
        {
          "internalType": "contract IERC721",
          "name": "nft",
          "type": "address"
        },
        {
          "internalType": "uint256",
          "name": "tokenId",
          "type": "uint256"
        },
        {
          "internalType": "uint256",
          "name": "price",
          "type": "uint256"
        },
        {
          "internalType": "address payable",
          "name": "seller",
          "type": "address"
        },
        {
          "internalType": "bool",
          "name": "sold",
          "type": "bool"
        }
      ],
      "stateMutability": "view",
      "type": "function"
    },
    {
      "inputs": [
        {
          "internalType": "contract IERC721",
          "name": "_nft",
          "type": "address"
        },
        {
          "internalType": "uint256",
          "name": "_tokenId",
          "type": "uint256"
        },
        {
          "internalType": "uint256",
          "name": "_price",
          "type": "uint256"
        }
      ],
      "name": "makeItem",
      "outputs": [],
      "stateMutability": "nonpayable",
      "type": "function"
    },
    {
      "inputs": [
        {
          "internalType": "contract IERC721",
          "name": "_nft",
          "type": "address"
        },
        {
          "internalType": "uint256",
          "name": "_tokenId",
          "type": "uint256"
        },
        {
          "internalType": "uint256",
          "name": "_price",
          "type": "uint256"
        },
        {
          "internalType": "uint256",
          "name": "_itemId",
          "type": "uint256"
        }
      ],
      "name": "makeOldItem",
      "outputs": [],
      "stateMutability": "nonpayable",
      "type": "function"
    },
    {
      "inputs": [
        {
          "internalType": "uint256",
          "name": "_itemId",
          "type": "uint256"
        }
      ],
      "name": "purchaseItem",
      "outputs": [],
      "stateMutability": "payable",
      "type": "function"
    }
  ],
  "bytecode": "0x60c060405234801561001057600080fd5b50604051620014c8380380620014c883398181016040528101906100349190610096565b60016000819055503373ffffffffffffffffffffffffffffffffffffffff1660808173ffffffffffffffffffffffffffffffffffffffff1660601b815250508060a08181525050506100e0565b600081519050610090816100c9565b92915050565b6000602082840312156100a857600080fd5b60006100b684828501610081565b91505092915050565b6000819050919050565b6100d2816100bf565b81146100dd57600080fd5b50565b60805160601c60a0516113b162000117600039600081816104d101526105820152600081816104a701526107a801526113b16000f3fe60806040526004361061007b5760003560e01c8063bfb231d21161004e578063bfb231d21461012a578063ca7dd3751461016c578063d38ea5bf146101a9578063fa00afc7146101c55761007b565b80633e71c4901461008057806365e17c9d146100a95780636bfb0d01146100d45780637fd6f15c146100ff575b600080fd5b34801561008c57600080fd5b506100a760048036038101906100a29190610cf8565b6101ee565b005b3480156100b557600080fd5b506100be6104a5565b6040516100cb9190610e7e565b60405180910390f35b3480156100e057600080fd5b506100e96104c9565b6040516100f69190610f70565b60405180910390f35b34801561010b57600080fd5b506101146104cf565b6040516101219190610f70565b60405180910390f35b34801561013657600080fd5b50610151600480360381019061014c9190610d5b565b6104f3565b60405161016396959493929190610f8b565b60405180910390f35b34801561017857600080fd5b50610193600480360381019061018e9190610d5b565b61057c565b6040516101a09190610f70565b60405180910390f35b6101c360048036038101906101be9190610d5b565b6105df565b005b3480156101d157600080fd5b506101ec60048036038101906101e79190610ca9565b6109ad565b005b60026000541415610234576040517f08c379a000000000000000000000000000000000000000000000000000000000815260040161022b90610f30565b60405180910390fd5b60026000819055506000821161027f576040517f08c379a000000000000000000000000000000000000000000000000000000000815260040161027690610ef0565b60405180910390fd5b8373ffffffffffffffffffffffffffffffffffffffff166323b872dd3330866040518463ffffffff1660e01b81526004016102bc93929190610e99565b600060405180830381600087803b1580156102d657600080fd5b505af11580156102ea573d6000803e3d6000fd5b505050506040518060c001604052808281526020018573ffffffffffffffffffffffffffffffffffffffff1681526020018481526020018381526020013373ffffffffffffffffffffffffffffffffffffffff16815260200160001515815250600260008381526020019081526020016000206000820151816000015560208201518160010160006101000a81548173ffffffffffffffffffffffffffffffffffffffff021916908373ffffffffffffffffffffffffffffffffffffffff160217905550604082015181600201556060820151816003015560808201518160040160006101000a81548173ffffffffffffffffffffffffffffffffffffffff021916908373ffffffffffffffffffffffffffffffffffffffff16021790555060a08201518160040160146101000a81548160ff0219169083151502179055509050503373ffffffffffffffffffffffffffffffffffffffff168473ffffffffffffffffffffffffffffffffffffffff167f655a0cf9c8db81512be9a76dc1c5ae5380b8816ce6ad659cd61b715e2999d59a600154868660405161048f93929190610fec565b60405180910390a3600160008190555050505050565b7f000000000000000000000000000000000000000000000000000000000000000081565b60015481565b7f000000000000000000000000000000000000000000000000000000000000000081565b60026020528060005260406000206000915090508060000154908060010160009054906101000a900473ffffffffffffffffffffffffffffffffffffffff16908060020154908060030154908060040160009054906101000a900473ffffffffffffffffffffffffffffffffffffffff16908060040160149054906101000a900460ff16905086565b600060647f000000000000000000000000000000000000000000000000000000000000000060646105ad9190611034565b60026000858152602001908152602001600020600301546105ce91906110bb565b6105d8919061108a565b9050919050565b60026000541415610625576040517f08c379a000000000000000000000000000000000000000000000000000000000815260040161061c90610f30565b60405180910390fd5b600260008190555060006106388261057c565b9050600060026000848152602001908152602001600020905060008311801561066357506001548311155b6106a2576040517f08c379a000000000000000000000000000000000000000000000000000000000815260040161069990610f10565b60405180910390fd5b813410156106e5576040517f08c379a00000000000000000000000000000000000000000000000000000000081526004016106dc90610f50565b60405180910390fd5b8060040160149054906101000a900460ff1615610737576040517f08c379a000000000000000000000000000000000000000000000000000000000815260040161072e90610ed0565b60405180910390fd5b8060040160009054906101000a900473ffffffffffffffffffffffffffffffffffffffff1673ffffffffffffffffffffffffffffffffffffffff166108fc82600301549081150290604051600060405180830381858888f193505050501580156107a5573d6000803e3d6000fd5b507f000000000000000000000000000000000000000000000000000000000000000073ffffffffffffffffffffffffffffffffffffffff166108fc8260030154846107f09190611115565b9081150290604051600060405180830381858888f1935050505015801561081b573d6000803e3d6000fd5b5060018160040160146101000a81548160ff0219169083151502179055508060010160009054906101000a900473ffffffffffffffffffffffffffffffffffffffff1673ffffffffffffffffffffffffffffffffffffffff166323b872dd303384600201546040518463ffffffff1660e01b815260040161089e93929190610e99565b600060405180830381600087803b1580156108b857600080fd5b505af11580156108cc573d6000803e3d6000fd5b505050503373ffffffffffffffffffffffffffffffffffffffff168160040160009054906101000a900473ffffffffffffffffffffffffffffffffffffffff1673ffffffffffffffffffffffffffffffffffffffff168260010160009054906101000a900473ffffffffffffffffffffffffffffffffffffffff1673ffffffffffffffffffffffffffffffffffffffff167f8b4c9c8a607d67b321582dd8461041b1dc2ceeca70c8b7f37f8e02095cf2e76d868560020154866003015460405161099893929190610fec565b60405180910390a45050600160008190555050565b600260005414156109f3576040517f08c379a00000000000000000000000000000000000000000000000000000000081526004016109ea90610f30565b60405180910390fd5b600260008190555060008111610a3e576040517f08c379a0000000000000000000000000000000000000000000000000000000008152600401610a3590610ef0565b60405180910390fd5b60016000815480929190610a51906111d9565b91905055508273ffffffffffffffffffffffffffffffffffffffff166323b872dd3330856040518463ffffffff1660e01b8152600401610a9393929190610e99565b600060405180830381600087803b158015610aad57600080fd5b505af1158015610ac1573d6000803e3d6000fd5b505050506040518060c0016040528060015481526020018473ffffffffffffffffffffffffffffffffffffffff1681526020018381526020018281526020013373ffffffffffffffffffffffffffffffffffffffff168152602001600015158152506002600060015481526020019081526020016000206000820151816000015560208201518160010160006101000a81548173ffffffffffffffffffffffffffffffffffffffff021916908373ffffffffffffffffffffffffffffffffffffffff160217905550604082015181600201556060820151816003015560808201518160040160006101000a81548173ffffffffffffffffffffffffffffffffffffffff021916908373ffffffffffffffffffffffffffffffffffffffff16021790555060a08201518160040160146101000a81548160ff0219169083151502179055509050503373ffffffffffffffffffffffffffffffffffffffff168373ffffffffffffffffffffffffffffffffffffffff167f655a0cf9c8db81512be9a76dc1c5ae5380b8816ce6ad659cd61b715e2999d59a6001548585604051610c6a93929190610fec565b60405180910390a36001600081905550505050565b600081359050610c8e8161134d565b92915050565b600081359050610ca381611364565b92915050565b600080600060608486031215610cbe57600080fd5b6000610ccc86828701610c7f565b9350506020610cdd86828701610c94565b9250506040610cee86828701610c94565b9150509250925092565b60008060008060808587031215610d0e57600080fd5b6000610d1c87828801610c7f565b9450506020610d2d87828801610c94565b9350506040610d3e87828801610c94565b9250506060610d4f87828801610c94565b91505092959194509250565b600060208284031215610d6d57600080fd5b6000610d7b84828501610c94565b91505092915050565b610d8d8161115b565b82525050565b610d9c81611149565b82525050565b610dab8161116d565b82525050565b610dba816111b5565b82525050565b6000610dcd601183611023565b9150610dd882611280565b602082019050919050565b6000610df0601f83611023565b9150610dfb826112a9565b602082019050919050565b6000610e13601283611023565b9150610e1e826112d2565b602082019050919050565b6000610e36601f83611023565b9150610e41826112fb565b602082019050919050565b6000610e59601083611023565b9150610e6482611324565b602082019050919050565b610e78816111ab565b82525050565b6000602082019050610e936000830184610d84565b92915050565b6000606082019050610eae6000830186610d93565b610ebb6020830185610d93565b610ec86040830184610e6f565b949350505050565b60006020820190508181036000830152610ee981610dc0565b9050919050565b60006020820190508181036000830152610f0981610de3565b9050919050565b60006020820190508181036000830152610f2981610e06565b9050919050565b60006020820190508181036000830152610f4981610e29565b9050919050565b60006020820190508181036000830152610f6981610e4c565b9050919050565b6000602082019050610f856000830184610e6f565b92915050565b600060c082019050610fa06000830189610e6f565b610fad6020830188610db1565b610fba6040830187610e6f565b610fc76060830186610e6f565b610fd46080830185610d84565b610fe160a0830184610da2565b979650505050505050565b60006060820190506110016000830186610e6f565b61100e6020830185610e6f565b61101b6040830184610e6f565b949350505050565b600082825260208201905092915050565b600061103f826111ab565b915061104a836111ab565b9250827fffffffffffffffffffffffffffffffffffffffffffffffffffffffffffffffff0382111561107f5761107e611222565b5b828201905092915050565b6000611095826111ab565b91506110a0836111ab565b9250826110b0576110af611251565b5b828204905092915050565b60006110c6826111ab565b91506110d1836111ab565b9250817fffffffffffffffffffffffffffffffffffffffffffffffffffffffffffffffff048311821515161561110a57611109611222565b5b828202905092915050565b6000611120826111ab565b915061112b836111ab565b92508282101561113e5761113d611222565b5b828203905092915050565b60006111548261118b565b9050919050565b60006111668261118b565b9050919050565b60008115159050919050565b600061118482611149565b9050919050565b600073ffffffffffffffffffffffffffffffffffffffff82169050919050565b6000819050919050565b60006111c0826111c7565b9050919050565b60006111d28261118b565b9050919050565b60006111e4826111ab565b91507fffffffffffffffffffffffffffffffffffffffffffffffffffffffffffffffff82141561121757611216611222565b5b600182019050919050565b7f4e487b7100000000000000000000000000000000000000000000000000000000600052601160045260246000fd5b7f4e487b7100000000000000000000000000000000000000000000000000000000600052601260045260246000fd5b7f6974656d20616c726561647920736f6c64000000000000000000000000000000600082015250565b7f5072696365206d7573742062652067726561746572207468616e207a65726f00600082015250565b7f6974656d20646f65736e27742065786973740000000000000000000000000000600082015250565b7f5265656e7472616e637947756172643a207265656e7472616e742063616c6c00600082015250565b7f6e6f7420656e6f75676820657468657200000000000000000000000000000000600082015250565b61135681611179565b811461136157600080fd5b50565b61136d816111ab565b811461137857600080fd5b5056fea2646970667358221220cb9c79bf79110242a9b7c2be1551bb53d4b753ad696e959e5a29f51bcaf48fce64736f6c63430008040033",
  "linkReferences": {},
  "deployedLinkReferences": {}
}